:020000020000FC
:02000000FFC13E
:100400001BD00FEF0093410600E000934406A0E0EC
:10041000B0E402E200933900C0E0D0E802E10ABF94
:1004200000E00093240703E00093E6060C9100939C
:1004300044060C93FBCFFFCF0F9303E50093E50633
:1004400004E00093E60607E50093E1060FEF009352
:10045000210701E0009340040DE10093500400E8FF
:100460000093520402E10093530401E00093580406
:1004700000E400935A0402E200935B040F91089594
:00000001FF
